{
  "contractName": "ConfigureRequestFactory",
  "abi": [
    {
      "constant": true,
      "inputs": [],
      "name": "getType",
      "outputs": [
        {
          "name": "",
          "type": "bytes32"
        }
      ],
      "payable": false,
      "stateMutability": "view",
      "type": "function"
    },
    {
      "constant": true,
      "inputs": [],
      "name": "requestType",
      "outputs": [
        {
          "name": "",
          "type": "bytes32"
        }
      ],
      "payable": false,
      "stateMutability": "view",
      "type": "function"
    },
    {
      "inputs": [
        {
          "name": "_registry",
          "type": "address"
        }
      ],
      "payable": false,
      "stateMutability": "nonpayable",
      "type": "constructor"
    },
    {
      "constant": false,
      "inputs": [
        {
          "name": "_data",
          "type": "bytes"
        }
      ],
      "name": "deploy",
      "outputs": [
        {
          "name": "",
          "type": "address"
        }
      ],
      "payable": false,
      "stateMutability": "nonpayable",
      "type": "function"
    }
  ],
  "bytecode": "0x608060405234801561001057600080fd5b50604051602080610c5b8339810180604052602081101561003057600080fd5b81019080805190602001909291905050507f636f6e666967757265000000000000000000000000000000000000000000000081816000819055508073ffffffffffffffffffffffffffffffffffffffff166325b9dee983306040518363ffffffff167c0100000000000000000000000000000000000000000000000000000000028152600401808381526020018273ffffffffffffffffffffffffffffffffffffffff1673ffffffffffffffffffffffffffffffffffffffff16815260200192505050602060405180830381600087803b15801561010d57600080fd5b505af1158015610121573d6000803e3d6000fd5b505050506040513d602081101561013757600080fd5b810190808051906020019092919050505050505050610b008061015b6000396000f3fe608060405234801561001057600080fd5b506004361061005d576000357c0100000000000000000000000000000000000000000000000000000000900480627743601461006257806315dae03e1461011b5780632ff3696914610139575b600080fd5b6100d96004803603602081101561007857600080fd5b810190808035906020019064010000000081111561009557600080fd5b8201836020820111156100a757600080fd5b803590602001918460018302840111640100000000831117156100c957600080fd5b9091929391929390505050610157565b604051808273ffffffffffffffffffffffffffffffffffffffff1673ffffffffffffffffffffffffffffffffffffffff16815260200191505060405180910390f35b610123610416565b6040518082815260200191505060405180910390f35b61014161041f565b6040518082815260200191505060405180910390f35b600080610162610533565b604051809103906000f08015801561017e573d6000803e3d6000fd5b5090508073ffffffffffffffffffffffffffffffffffffffff16631613ec9d6040518163ffffffff167c010000000000000000000000000000000000000000000000000000000002815260040160206040518083038186803b1580156101e357600080fd5b505afa1580156101f7573d6000803e3d6000fd5b505050506040513d602081101561020d57600080fd5b81019080805190602001909291905050507bffffffffffffffffffffffffffffffffffffffffffffffffffffffff191661028a85858080601f016020809104026020016040519081016040528093929190818152602001838380828437600081840152601f19601f82011690508083019250505050505050610425565b7bffffffffffffffffffffffffffffffffffffffffffffffffffffffff191614151561031e576040517f08c379a000000000000000000000000000000000000000000000000000000000815260040180806020018281038252600c8152602001807f496e76616c69642064617461000000000000000000000000000000000000000081525060200191505060405180910390fd5b60008173ffffffffffffffffffffffffffffffffffffffff1685856040518083838082843780830192505050925050506000604051808303816000865af19150503d806000811461038b576040519150601f19603f3d011682016040523d82523d6000602084013e610390565b606091505b50508091505080151561040b576040517f08c379a00000000000000000000000000000000000000000000000000000000081526004018080602001828103825260128152602001807f556e7375636365737366756c6c2063616c6c000000000000000000000000000081525060200191505060405180910390fd5b819250505092915050565b60008054905090565b60005481565b600080600483511061043857600461043b565b82515b905060008090505b81811015610529576008810260ff7f010000000000000000000000000000000000000000000000000000000000000002858381518110151561048157fe5b9060200101517f010000000000000000000000000000000000000000000000000000000000000090047f010000000000000000000000000000000000000000000000000000000000000002167effffffffffffffffffffffffffffffffffffffffffffffffffffffffffffff19167bffffffffffffffffffffffffffffffffffffffffffffffffffffffff1916908060020a8204915050831792508080600101915050610443565b5081915050919050565b604051610591806105448339019056fe608060405234801561001057600080fd5b50336000806101000a81548173ffffffffffffffffffffffffffffffffffffffff021916908373ffffffffffffffffffffffffffffffffffffffff160217905550610531806100606000396000f3fe608060405234801561001057600080fd5b506004361061007f576000357c0100000000000000000000000000000000000000000000000000000000900480631613ec9d1461008457806320ce6cc3146100e0578063a675408b14610187578063c45a0155146101c9578063cc6a2ef514610213578063fbbf93a014610255575b600080fd5b61008c6102ca565b60405180827bffffffffffffffffffffffffffffffffffffffffffffffffffffffff19167bffffffffffffffffffffffffffffffffffffffffffffffffffffffff1916815260200191505060405180910390f35b61018560048036036101008110156100f757600080fd5b8101908080608001906004806020026040519081016040528092919082600460200280828437600081840152601f19601f820116905080830192505050505050919291929080608001906004806020026040519081016040528092919082600460200280828437600081840152601f19601f8201169050808301925050505050509192919290505050610307565b005b6101b36004803603602081101561019d57600080fd5b810190808035906020019092919050505061038a565b6040518082815260200191505060405180910390f35b6101d16103a4565b604051808273ffffffffffffffffffffffffffffffffffffffff1673ffffffffffffffffffffffffffffffffffffffff16815260200191505060405180910390f35b61023f6004803603602081101561022957600080fd5b81019080803590602001909291905050506103c9565b6040518082815260200191505060405180910390f35b61025d6103e3565b6040518083600460200280838360005b8381101561028857808201518184015260208101905061026d565b5050505090500182600460200280838360005b838110156102b657808201518184015260208101905061029b565b505050509050019250505060405180910390f35b600060405180807f636f6e6669677572652875696e743235365b345d2c75696e743235365b345d2981525060200190506040518091039020905090565b6000809054906101000a900473ffffffffffffffffffffffffffffffffffffffff1673ffffffffffffffffffffffffffffffffffffffff163373ffffffffffffffffffffffffffffffffffffffff1614151561036257600080fd5b81600190600461037392919061047d565b5080600590600461038592919061047d565b505050565b60058160048110151561039957fe5b016000915090505481565b6000809054906101000a900473ffffffffffffffffffffffffffffffffffffffff1681565b6001816004811015156103d857fe5b016000915090505481565b6103eb6104bd565b6103f36104bd565b600160058160048060200260405190810160405280929190826004801561042f576020028201915b81548152602001906001019080831161041b575b505050505091508060048060200260405190810160405280929190826004801561046e576020028201915b81548152602001906001019080831161045a575b50505050509050915091509091565b82600481019282156104ac579160200282015b828111156104ab578251825591602001919060010190610490565b5b5090506104b991906104e0565b5090565b608060405190810160405280600490602082028038833980820191505090505090565b61050291905b808211156104fe5760008160009055506001016104e6565b5090565b9056fea165627a7a72305820ea313053fa1a0c184bd5584a30f31d758448dc41e22bd260d2e3dc5c26671ef20029a165627a7a723058201dd6a0dc373b8ba185fb486a23f6ed42d050475aa1779a41d4a20b5f34c723c30029",
  "source": "pragma solidity ^0.5.2;\n\nimport \"./RequestFactory.sol\";\nimport \"./ConfigureRequest.sol\";\nimport \"../libraries/Util.sol\";\nimport \"../interfaces/IRequest.sol\";\n\ncontract ConfigureRequestFactory is RequestFactory {\n    \n    constructor (address _registry) public RequestFactory(\"configure\", _registry) {\n\n    }\n\n    function deploy(bytes calldata _data) external returns(address) {\n        address configureRequest = address(new ConfigureRequest());\n        require(Util.getSig(_data) == IRequest(configureRequest).getInitFunction(), \"Invalid data\");\n        bool success;\n        (success, ) = configureRequest.call(_data);\n        require(success, \"Unsuccessfull call\");\n        return configureRequest;\n    }\n}",
  "sourcePath": "/Users/terenceyak/Documents/testing/contracts/Requests/ConfigureRequestFactory.sol",
  "compiler": {
    "name": "solc",
    "version": "0.5.2+commit.1df8f40c.Emscripten.clang"
  },
  "schemaVersion": "3.0.1",
  "updatedAt": "2019-02-02T05:32:11.971Z",
  "devdoc": {
    "methods": {}
  },
  "userdoc": {
    "methods": {
      "getType()": {
        "notice": "Get the name of the Module"
      }
    }
  }
}