{
  "contractName": "ConfigureRequest",
  "abi": [
    {
      "constant": true,
      "inputs": [
        {
          "name": "",
          "type": "uint256"
        }
      ],
      "name": "stoInvestmentArgs",
      "outputs": [
        {
          "name": "",
          "type": "uint256"
        }
      ],
      "payable": false,
      "stateMutability": "view",
      "type": "function"
    },
    {
      "constant": true,
      "inputs": [],
      "name": "factory",
      "outputs": [
        {
          "name": "",
          "type": "address"
        }
      ],
      "payable": false,
      "stateMutability": "view",
      "type": "function"
    },
    {
      "constant": true,
      "inputs": [
        {
          "name": "",
          "type": "uint256"
        }
      ],
      "name": "stoTimeArgs",
      "outputs": [
        {
          "name": "",
          "type": "uint256"
        }
      ],
      "payable": false,
      "stateMutability": "view",
      "type": "function"
    },
    {
      "inputs": [],
      "payable": false,
      "stateMutability": "nonpayable",
      "type": "constructor"
    },
    {
      "constant": false,
      "inputs": [
        {
          "name": "_stoTimeArgs",
          "type": "uint256[4]"
        },
        {
          "name": "_stoInvestmentArgs",
          "type": "uint256[4]"
        }
      ],
      "name": "configure",
      "outputs": [],
      "payable": false,
      "stateMutability": "nonpayable",
      "type": "function"
    },
    {
      "constant": true,
      "inputs": [],
      "name": "getDetails",
      "outputs": [
        {
          "name": "",
          "type": "uint256[4]"
        },
        {
          "name": "",
          "type": "uint256[4]"
        }
      ],
      "payable": false,
      "stateMutability": "view",
      "type": "function"
    },
    {
      "constant": true,
      "inputs": [],
      "name": "getInitFunction",
      "outputs": [
        {
          "name": "",
          "type": "bytes4"
        }
      ],
      "payable": false,
      "stateMutability": "pure",
      "type": "function"
    }
  ],
  "bytecode": "0x608060405234801561001057600080fd5b50336000806101000a81548173ffffffffffffffffffffffffffffffffffffffff021916908373ffffffffffffffffffffffffffffffffffffffff160217905550610531806100606000396000f3fe608060405234801561001057600080fd5b506004361061007f576000357c0100000000000000000000000000000000000000000000000000000000900480631613ec9d1461008457806320ce6cc3146100e0578063a675408b14610187578063c45a0155146101c9578063cc6a2ef514610213578063fbbf93a014610255575b600080fd5b61008c6102ca565b60405180827bffffffffffffffffffffffffffffffffffffffffffffffffffffffff19167bffffffffffffffffffffffffffffffffffffffffffffffffffffffff1916815260200191505060405180910390f35b61018560048036036101008110156100f757600080fd5b8101908080608001906004806020026040519081016040528092919082600460200280828437600081840152601f19601f820116905080830192505050505050919291929080608001906004806020026040519081016040528092919082600460200280828437600081840152601f19601f8201169050808301925050505050509192919290505050610307565b005b6101b36004803603602081101561019d57600080fd5b810190808035906020019092919050505061038a565b6040518082815260200191505060405180910390f35b6101d16103a4565b604051808273ffffffffffffffffffffffffffffffffffffffff1673ffffffffffffffffffffffffffffffffffffffff16815260200191505060405180910390f35b61023f6004803603602081101561022957600080fd5b81019080803590602001909291905050506103c9565b6040518082815260200191505060405180910390f35b61025d6103e3565b6040518083600460200280838360005b8381101561028857808201518184015260208101905061026d565b5050505090500182600460200280838360005b838110156102b657808201518184015260208101905061029b565b505050509050019250505060405180910390f35b600060405180807f636f6e6669677572652875696e743235365b345d2c75696e743235365b345d2981525060200190506040518091039020905090565b6000809054906101000a900473ffffffffffffffffffffffffffffffffffffffff1673ffffffffffffffffffffffffffffffffffffffff163373ffffffffffffffffffffffffffffffffffffffff1614151561036257600080fd5b81600190600461037392919061047d565b5080600590600461038592919061047d565b505050565b60058160048110151561039957fe5b016000915090505481565b6000809054906101000a900473ffffffffffffffffffffffffffffffffffffffff1681565b6001816004811015156103d857fe5b016000915090505481565b6103eb6104bd565b6103f36104bd565b600160058160048060200260405190810160405280929190826004801561042f576020028201915b81548152602001906001019080831161041b575b505050505091508060048060200260405190810160405280929190826004801561046e576020028201915b81548152602001906001019080831161045a575b50505050509050915091509091565b82600481019282156104ac579160200282015b828111156104ab578251825591602001919060010190610490565b5b5090506104b991906104e0565b5090565b608060405190810160405280600490602082028038833980820191505090505090565b61050291905b808211156104fe5760008160009055506001016104e6565b5090565b9056fea165627a7a72305820ea313053fa1a0c184bd5584a30f31d758448dc41e22bd260d2e3dc5c26671ef20029",
  "source": "pragma solidity ^0.5.2;\n\nimport \"./Request.sol\";\n\n\ncontract ConfigureRequest is Request {\n    uint256[4] public stoTimeArgs;\n    uint256[4] public stoInvestmentArgs;\n\n    constructor () public {\n        factory = msg.sender;\n    }\n\n    function configure(uint256[4] memory _stoTimeArgs, uint256[4] memory _stoInvestmentArgs) public onlyFactory {\n        stoTimeArgs = _stoTimeArgs;\n        stoInvestmentArgs = _stoInvestmentArgs;\n    }\n\n    function getDetails() public view returns(uint256[4] memory, uint256[4] memory) {\n        return (stoTimeArgs, stoInvestmentArgs);\n    }\n\n    function getInitFunction() public pure returns(bytes4) {\n        return bytes4(keccak256(\"configure(uint256[4],uint256[4])\"));\n    }\n}",
  "sourcePath": "/Users/terenceyak/Documents/testing/contracts/Requests/ConfigureRequest.sol",
  "compiler": {
    "name": "solc",
    "version": "0.5.2+commit.1df8f40c.Emscripten.clang"
  },
  "schemaVersion": "3.0.1",
  "updatedAt": "2019-02-02T05:32:11.970Z",
  "devdoc": {
    "methods": {}
  },
  "userdoc": {
    "methods": {}
  }
}