{
  "contractName": "FulfillConfigure",
  "abi": [
    {
      "constant": true,
      "inputs": [],
      "name": "getType",
      "outputs": [
        {
          "name": "",
          "type": "bytes32"
        }
      ],
      "payable": false,
      "stateMutability": "view",
      "type": "function"
    },
    {
      "constant": true,
      "inputs": [],
      "name": "requestType",
      "outputs": [
        {
          "name": "",
          "type": "bytes32"
        }
      ],
      "payable": false,
      "stateMutability": "view",
      "type": "function"
    },
    {
      "inputs": [
        {
          "name": "_fulfillTarget",
          "type": "address"
        },
        {
          "name": "_registry",
          "type": "address"
        }
      ],
      "payable": false,
      "stateMutability": "nonpayable",
      "type": "constructor"
    },
    {
      "constant": false,
      "inputs": [
        {
          "name": "_request",
          "type": "address"
        }
      ],
      "name": "fulfill",
      "outputs": [
        {
          "name": "",
          "type": "bool"
        }
      ],
      "payable": false,
      "stateMutability": "nonpayable",
      "type": "function"
    }
  ],
  "bytecode": "0x608060405234801561001057600080fd5b5060405160408061038b8339810180604052604081101561003057600080fd5b8101908080519060200190929190805190602001909291905050507f636f6e666967757265000000000000000000000000000000000000000000000081816000819055508073ffffffffffffffffffffffffffffffffffffffff1663d00762ea83306040518363ffffffff167c0100000000000000000000000000000000000000000000000000000000028152600401808381526020018273ffffffffffffffffffffffffffffffffffffffff1673ffffffffffffffffffffffffffffffffffffffff16815260200192505050602060405180830381600087803b15801561011757600080fd5b505af115801561012b573d6000803e3d6000fd5b505050506040513d602081101561014157600080fd5b81019080805190602001909291905050505050505050610225806101666000396000f3fe608060405234801561001057600080fd5b506004361061005e576000357c01000000000000000000000000000000000000000000000000000000009004806315dae03e146100635780632ff369691461008157806344e03a1f1461009f575b600080fd5b61006b6100fb565b6040518082815260200191505060405180910390f35b610089610104565b6040518082815260200191505060405180910390f35b6100e1600480360360208110156100b557600080fd5b81019080803573ffffffffffffffffffffffffffffffffffffffff16906020019092919050505061010a565b604051808215151515815260200191505060405180910390f35b60008054905090565b60005481565b60006101146101d6565b61011c6101d6565b8373ffffffffffffffffffffffffffffffffffffffff1663fbbf93a06040518163ffffffff167c01000000000000000000000000000000000000000000000000000000000281526004016101006040518083038186803b15801561017f57600080fd5b505afa158015610193573d6000803e3d6000fd5b505050506040513d601f19601f820116820180604052506101008110156101b957600080fd5b810190809190826080019190505080925081935050505050919050565b60806040519081016040528060049060208202803883398082019150509050509056fea165627a7a7230582064955c74644cb16159ee859aaceae1a7d9181f4a07844a565f13bc6a3b4b8b300029",
  "source": "pragma solidity ^0.5.2;\n\nimport \"./Fulfiller.sol\";\nimport \"../interfaces/IConfigureRequest.sol\";\n\n\ncontract FulfillConfigure is Fulfiller {\n\n    constructor(address _fulfillTarget, address _registry) \n        public \n        Fulfiller(\"configure\", _registry) {}\n\n    function fulfill(address _request) external returns (bool) {\n        uint256[4] memory stoTimeArgs;\n        uint256[4] memory stoInvestArgs;\n        (stoTimeArgs, stoInvestArgs) = IConfigureRequest(_request).getDetails();\n    }\n\n\n}",
  "sourcePath": "/Users/terenceyak/Documents/testing/contracts/Fulfillers/FulfillConfigure.sol",
  "compiler": {
    "name": "solc",
    "version": "0.5.2+commit.1df8f40c.Emscripten.clang"
  },
  "schemaVersion": "3.0.1",
  "updatedAt": "2019-02-02T05:32:11.960Z",
  "devdoc": {
    "methods": {}
  },
  "userdoc": {
    "methods": {
      "getType()": {
        "notice": "Get the name of the Module"
      }
    }
  }
}