{
  "contractName": "InitializeRequestFactory",
  "abi": [
    {
      "constant": true,
      "inputs": [],
      "name": "getType",
      "outputs": [
        {
          "name": "",
          "type": "bytes32"
        }
      ],
      "payable": false,
      "stateMutability": "view",
      "type": "function"
    },
    {
      "constant": true,
      "inputs": [],
      "name": "requestType",
      "outputs": [
        {
          "name": "",
          "type": "bytes32"
        }
      ],
      "payable": false,
      "stateMutability": "view",
      "type": "function"
    },
    {
      "inputs": [
        {
          "name": "_registry",
          "type": "address"
        }
      ],
      "payable": false,
      "stateMutability": "nonpayable",
      "type": "constructor"
    },
    {
      "constant": false,
      "inputs": [
        {
          "name": "_data",
          "type": "bytes"
        }
      ],
      "name": "deploy",
      "outputs": [
        {
          "name": "",
          "type": "address"
        }
      ],
      "payable": false,
      "stateMutability": "nonpayable",
      "type": "function"
    }
  ],
  "bytecode": "0x608060405234801561001057600080fd5b506040516020806109b68339810180604052602081101561003057600080fd5b81019080805190602001909291905050507f696e697469616c697a650000000000000000000000000000000000000000000081816000819055508073ffffffffffffffffffffffffffffffffffffffff166325b9dee983306040518363ffffffff167c0100000000000000000000000000000000000000000000000000000000028152600401808381526020018273ffffffffffffffffffffffffffffffffffffffff1673ffffffffffffffffffffffffffffffffffffffff16815260200192505050602060405180830381600087803b15801561010d57600080fd5b505af1158015610121573d6000803e3d6000fd5b505050506040513d602081101561013757600080fd5b81019080805190602001909291905050505050505061085b8061015b6000396000f3fe608060405234801561001057600080fd5b506004361061005d576000357c0100000000000000000000000000000000000000000000000000000000900480627743601461006257806315dae03e1461011b5780632ff3696914610139575b600080fd5b6100d96004803603602081101561007857600080fd5b810190808035906020019064010000000081111561009557600080fd5b8201836020820111156100a757600080fd5b803590602001918460018302840111640100000000831117156100c957600080fd5b9091929391929390505050610157565b604051808273ffffffffffffffffffffffffffffffffffffffff1673ffffffffffffffffffffffffffffffffffffffff16815260200191505060405180910390f35b610123610416565b6040518082815260200191505060405180910390f35b61014161041f565b6040518082815260200191505060405180910390f35b600080610162610533565b604051809103906000f08015801561017e573d6000803e3d6000fd5b5090508073ffffffffffffffffffffffffffffffffffffffff16631613ec9d6040518163ffffffff167c010000000000000000000000000000000000000000000000000000000002815260040160206040518083038186803b1580156101e357600080fd5b505afa1580156101f7573d6000803e3d6000fd5b505050506040513d602081101561020d57600080fd5b81019080805190602001909291905050507bffffffffffffffffffffffffffffffffffffffffffffffffffffffff191661028a85858080601f016020809104026020016040519081016040528093929190818152602001838380828437600081840152601f19601f82011690508083019250505050505050610425565b7bffffffffffffffffffffffffffffffffffffffffffffffffffffffff191614151561031e576040517f08c379a000000000000000000000000000000000000000000000000000000000815260040180806020018281038252600c8152602001807f496e76616c69642064617461000000000000000000000000000000000000000081525060200191505060405180910390fd5b60008173ffffffffffffffffffffffffffffffffffffffff1685856040518083838082843780830192505050925050506000604051808303816000865af19150503d806000811461038b576040519150601f19603f3d011682016040523d82523d6000602084013e610390565b606091505b50508091505080151561040b576040517f08c379a00000000000000000000000000000000000000000000000000000000081526004018080602001828103825260128152602001807f556e7375636365737366756c6c2063616c6c000000000000000000000000000081525060200191505060405180910390fd5b819250505092915050565b60008054905090565b60005481565b600080600483511061043857600461043b565b82515b905060008090505b81811015610529576008810260ff7f010000000000000000000000000000000000000000000000000000000000000002858381518110151561048157fe5b9060200101517f010000000000000000000000000000000000000000000000000000000000000090047f010000000000000000000000000000000000000000000000000000000000000002167effffffffffffffffffffffffffffffffffffffffffffffffffffffffffffff19167bffffffffffffffffffffffffffffffffffffffffffffffffffffffff1916908060020a8204915050831792508080600101915050610443565b5081915050919050565b6040516102ec806105448339019056fe608060405234801561001057600080fd5b50336000806101000a81548173ffffffffffffffffffffffffffffffffffffffff021916908373ffffffffffffffffffffffffffffffffffffffff16021790555061028c806100606000396000f3fe608060405234801561001057600080fd5b5060043610610074576000357c0100000000000000000000000000000000000000000000000000000000900480631613ec9d146100795780631eb25e0a146100d55780632c4e722e14610103578063c45a015514610121578063fbbf93a01461016b575b600080fd5b610081610189565b60405180827bffffffffffffffffffffffffffffffffffffffffffffffffffffffff19167bffffffffffffffffffffffffffffffffffffffffffffffffffffffff1916815260200191505060405180910390f35b610101600480360360208110156100eb57600080fd5b81019080803590602001909291905050506101c6565b005b61010b61022b565b6040518082815260200191505060405180910390f35b610129610231565b604051808273ffffffffffffffffffffffffffffffffffffffff1673ffffffffffffffffffffffffffffffffffffffff16815260200191505060405180910390f35b610173610256565b6040518082815260200191505060405180910390f35b600060405180807f636f6e6669677572652875696e7432353629000000000000000000000000000081525060120190506040518091039020905090565b6000809054906101000a900473ffffffffffffffffffffffffffffffffffffffff1673ffffffffffffffffffffffffffffffffffffffff163373ffffffffffffffffffffffffffffffffffffffff1614151561022157600080fd5b8060018190555050565b60015481565b6000809054906101000a900473ffffffffffffffffffffffffffffffffffffffff1681565b600060015490509056fea165627a7a72305820a359a79fd1d493a213636f628edb0888d7db29782dad81b30bc546c3a29955e50029a165627a7a72305820b51d06edadceba50978b378139d7bc32c855569be904b18885000e32dc640cfa0029",
  "source": "pragma solidity ^0.5.2;\n\nimport \"./RequestFactory.sol\";\nimport \"./InitializeRequest.sol\";\nimport \"../libraries/Util.sol\";\nimport \"../interfaces/IRequest.sol\";\n\ncontract InitializeRequestFactory is RequestFactory {\n    \n    constructor (address _registry) public RequestFactory(\"initialize\", _registry) {\n\n    }\n\n    function deploy(bytes calldata _data) external returns(address) {\n        address initializeRequest = address(new InitializeRequest());\n        require(Util.getSig(_data) == IRequest(initializeRequest).getInitFunction(), \"Invalid data\");\n        bool success;\n        (success, ) = initializeRequest.call(_data);\n        require(success, \"Unsuccessfull call\");\n        return initializeRequest;\n    }\n}",
  "sourcePath": "/Users/terenceyak/Documents/testing/contracts/Requests/InitializeRequestFactory.sol",
  "compiler": {
    "name": "solc",
    "version": "0.5.2+commit.1df8f40c.Emscripten.clang"
  },
  "schemaVersion": "3.0.1",
  "updatedAt": "2019-02-02T05:32:11.963Z",
  "devdoc": {
    "methods": {}
  },
  "userdoc": {
    "methods": {
      "getType()": {
        "notice": "Get the name of the Module"
      }
    }
  }
}