{
  "contractName": "InitializeRequest",
  "abi": [
    {
      "constant": true,
      "inputs": [],
      "name": "rate",
      "outputs": [
        {
          "name": "",
          "type": "uint256"
        }
      ],
      "payable": false,
      "stateMutability": "view",
      "type": "function"
    },
    {
      "constant": true,
      "inputs": [],
      "name": "factory",
      "outputs": [
        {
          "name": "",
          "type": "address"
        }
      ],
      "payable": false,
      "stateMutability": "view",
      "type": "function"
    },
    {
      "inputs": [],
      "payable": false,
      "stateMutability": "nonpayable",
      "type": "constructor"
    },
    {
      "constant": false,
      "inputs": [
        {
          "name": "_rate",
          "type": "uint256"
        }
      ],
      "name": "configure",
      "outputs": [],
      "payable": false,
      "stateMutability": "nonpayable",
      "type": "function"
    },
    {
      "constant": true,
      "inputs": [],
      "name": "getDetails",
      "outputs": [
        {
          "name": "",
          "type": "uint256"
        }
      ],
      "payable": false,
      "stateMutability": "view",
      "type": "function"
    },
    {
      "constant": true,
      "inputs": [],
      "name": "getInitFunction",
      "outputs": [
        {
          "name": "",
          "type": "bytes4"
        }
      ],
      "payable": false,
      "stateMutability": "pure",
      "type": "function"
    }
  ],
  "bytecode": "0x608060405234801561001057600080fd5b50336000806101000a81548173ffffffffffffffffffffffffffffffffffffffff021916908373ffffffffffffffffffffffffffffffffffffffff16021790555061028c806100606000396000f3fe608060405234801561001057600080fd5b5060043610610074576000357c0100000000000000000000000000000000000000000000000000000000900480631613ec9d146100795780631eb25e0a146100d55780632c4e722e14610103578063c45a015514610121578063fbbf93a01461016b575b600080fd5b610081610189565b60405180827bffffffffffffffffffffffffffffffffffffffffffffffffffffffff19167bffffffffffffffffffffffffffffffffffffffffffffffffffffffff1916815260200191505060405180910390f35b610101600480360360208110156100eb57600080fd5b81019080803590602001909291905050506101c6565b005b61010b61022b565b6040518082815260200191505060405180910390f35b610129610231565b604051808273ffffffffffffffffffffffffffffffffffffffff1673ffffffffffffffffffffffffffffffffffffffff16815260200191505060405180910390f35b610173610256565b6040518082815260200191505060405180910390f35b600060405180807f636f6e6669677572652875696e7432353629000000000000000000000000000081525060120190506040518091039020905090565b6000809054906101000a900473ffffffffffffffffffffffffffffffffffffffff1673ffffffffffffffffffffffffffffffffffffffff163373ffffffffffffffffffffffffffffffffffffffff1614151561022157600080fd5b8060018190555050565b60015481565b6000809054906101000a900473ffffffffffffffffffffffffffffffffffffffff1681565b600060015490509056fea165627a7a72305820a359a79fd1d493a213636f628edb0888d7db29782dad81b30bc546c3a29955e50029",
  "source": "pragma solidity ^0.5.2;\n\nimport \"./Request.sol\";\n\n\ncontract InitializeRequest is Request {\n    uint256 public rate;\n\n    constructor () public {\n        factory = msg.sender;\n    }\n\n    function configure(uint256 _rate) public onlyFactory {\n        rate = _rate;\n    }\n\n    function getDetails() public view returns(uint256) {\n        return rate;\n    }\n\n    function getInitFunction() public pure returns(bytes4) {\n        return bytes4(keccak256(\"configure(uint256)\"));\n    }\n}",
  "sourcePath": "/Users/terenceyak/Documents/testing/contracts/Requests/InitializeRequest.sol",
  "compiler": {
    "name": "solc",
    "version": "0.5.2+commit.1df8f40c.Emscripten.clang"
  },
  "schemaVersion": "3.0.1",
  "updatedAt": "2019-02-02T05:32:11.963Z",
  "devdoc": {
    "methods": {}
  },
  "userdoc": {
    "methods": {}
  }
}